:020000040800F2
:10000000480800208901000815230008391F00084E
:1000100011230008450200084124000800000000E8
:100020000000000000000000000000001D23000888
:1000300049020008000000001923000821230008DD
:10004000A3010008A3010008A3010008A301000800
:10005000A3010008A3010008A3010008A3010008F0
:10006000A3010008A3010008A3010008A3010008E0
:10007000A3010008A3010008A3010008A3010008D0
:10008000A3010008A3010008A3010008A3010008C0
:10009000A3010008A3010008A3010008A3010008B0
:1000A000A3010008A3010008A3010008A3010008A0
:1000B000A3010008A3010008A3010008A301000890
:1000C000A3010008A3010008A3010008A301000880
:1000D000A301000835240008A3010008A3010008BB
:1000E000A3010008A3010008A301000800F002F822
:1000F00000F03AF80AA090E8000C82448344AAF188
:100100000107DA4501D100F02FF8AFF2090EBAE885
:100110000F0013F0010F18BFFB1A43F0010318473B
:100120001826000038260000103A24BF78C878C18D
:10013000FAD8520724BF30C830C144BF04680C60ED
:10014000704700000023002400250026103A28BF35
:1001500078C1FBD8520728BF30C148BF0B60704739
:100160001FB51FBD10B510BD00F031F81146FFF7E7
:10017000F7FF02F067F900F04FF803B4FFF7F2FF62
:1001800003BC00F057F800000948804709480047C1
:10019000FEE7FEE7FEE7FEE7FEE7FEE7FEE7FEE737
:1001A000FEE7FEE704480549054A064B7047000094
:1001B00025230008ED000008480200204808002020
:1001C0004804002048040020704770477047754677
:1001D00000F02CF8AE4605006946534620F00700B3
:1001E000854618B020B5FFF7DDFFBDE820404FF091
:1001F00000064FF000074FF000084FF0000BAC4630
:10020000ACE8C009ACE8C009ACE8C009ACE8C0097A
:1002100021F007018D46704710B50446AFF300800A
:100220002046BDE81040FFF7A8BF00000048704717
:100230001000002001491820ABBEFEE72600020096
:1002400070470000FEE7000070470000EFF31080E9
:1002500072B600BFFEE70000014690F821000228B8
:1002600016D10868D1E90FC3026822F00E020260BD
:10027000026822F001020260012000FA03F2CCF8C9
:10028000042081F821000020002281F820207047FE
:10029000042088630120002281F82020704700009C
:1002A00080B590F82110022924D10268116821F04C
:1002B0000E0111602F211368C4F202018A4240F23C
:1002C0000401C4F2020123F00103136016DD3023A0
:1002D000C4F202039A421DD04423C4F202039A429C
:1002E0001CD05823C4F202039A421DD14FF480332C
:1002F00022E000BF04218163012080BD0823C4F2F5
:1003000002039A420ED01C23C4F202039A420BD17C
:10031000102311E04FF480730EE000BF4FF48053C0
:100320000AE000BF012307E001F1680C4FF0807381
:10033000624508BF4FF480130B60012180F8211043
:10034000426B002180F820100AB190470021084636
:1003500080BD00002DE9F04F82B041F20042C4F2AE
:1003600001020E680423904208BF0323002E00936D
:1003700000F0F68040F2004C4FF6FF7E0022C4F2FF
:10038000010C0124C1F2100E4FF0000A4FF00009D9
:1003900047E000BF012502F00C040F27A7402BEA1D
:1003A000070705FA04F43C4343F82640D1F804B0AB
:1003B00040F20C455FEACB23DCF8083054BF23EA57
:1003C000080343EA0803C4F20105CCF808302B689F
:1003D0005FEA8B2454BF23EA080343EA08032B6037
:1003E0005FEA8B34DCF8043054BF23EA080343EAA5
:1003F00008035FEACB34CCF80430DCF800304FF06F
:10040000010454BF23EA080343EA0803CCF8003090
:100410000E680AF1010A36FA0AF302F1040200F04A
:100420009F8004FA0AF816EA080FF1D04B6873456A
:1004300012DC122B56D8DFE803F0350B4549555531
:1004400055555555555555555555554D510000BFA8
:10045000D1F80C9046E000BF4FF6FF75C1F22105C0
:10046000AB420FDC0025C1F21105AB421AD00025CA
:10047000C1F21205AB4215D00025C1F22105AB42F5
:1004800010D02FE00025C1F22205AB420AD0002592
:10049000C1F23105AB4205D00025C1F23205AB42B5
:1004A00020D100BF8B684BB1012B14BFC0F8148062
:1004B000C0F810804FF0080914E000BF4FF00409A5
:1004C00010E000BFCB6803F108090BE04FF0000912
:1004D00008E000BFCB6803F1040903E0CB6803F137
:1004E0000C0900BF13460546BAF1080F24BF203B94
:1004F00004352E680F279F40BE4309FA03F33343A8
:100500002B60CB79DB067FF583AF41F21804C4F290
:10051000020423684FEA9A0643F00103236023682C
:1005200040F6000403F001030193019BACF57E73D8
:1005300053F826B0C4F20104A0420FD040F60044A4
:10054000C4F20104A0423FF425AF41F20004C4F21A
:100550000104009DA04208BF02251CE700251AE700
:1005600002B0BDE8F08F00008068084018BF01208D
:1005700070470000002A08BF0904016170470000AD
:1005800040F24420C2F200000068704770B5B8B372
:10059000044690F83D0028B9002084F83C0020462D
:1005A00000F0B0F8242084F83D002068016821F0B4
:1005B00001010160016841F400410160016821F41A
:1005C0000041016000F070FA48F28041C0F21E0163
:1005D00040F60013D4F804E088424FF00001C0F266
:1005E0003D0348F2A16C4FF0000238BF0121984250
:1005F000C0F2010C38BF0122E64538BF0A460AB1F5
:10060000012070BD4DF68361C4F21B31A0FB0112C5
:100610002168950C4B684FF4967623F03F0343EA2C
:100620009243754344F6D3564B60C1F262060B6A9F
:10063000A5FB0656B50923F03F03E64538BF950CE8
:100640006A1C1A430A62CA6948F2A0664CF6FF7334
:10065000C0F20106B64522EA03020BD801384FEA80
:100660004E03B0FBF3F001306FF31F30042898BF46
:1006700004201EE0A368013863B119230EFB03F3C5
:10068000B0FBF3F001306FF31F3078B100F580401C
:1006900008E000BF0EEB4E03B0FBF3F001306FF348
:1006A0001F3028B100F5004003E000BF012000E04A
:1006B00001201043C8610868D4E9072320F0C00076
:1006C000104318430860886848F2FF3204F10C06B2
:1006D00090434CCE18431043A5698860C86820F049
:1006E000FF0030432843C860086840F001000860FC
:1006F00000202021206484F83D10206384F83E000F
:1007000070BD000010B586B0006845F20042C4F22A
:10071000000200219042049102D006B010BD00BF3B
:1007200041F21804C4F20204206802A940F0080053
:100730002060206800F00800019001984FF440709C
:100740000290122003900320059040F60040C4F26E
:100750000100FFF7FFFD0420C4F20100016841F031
:10076000E06141F002010160606840F400106060E7
:10077000606800F400100190019806B010BD000000
:1007800040F2000040F24421C2F20000C2F2000137
:1007900000780A68104408607047000080B542F293
:1007A0000000C4F20200016841F010010160032062
:1007B00000F08AF80F2000F005F800F027F800207C
:1007C00080BD000070B540F20006C2F2000640F2A3
:1007D00008013278C2F200014FF47A730968B3FB62
:1007E000F2F20446B1FBF2F1084600F05FFB0F2C79
:1007F0004FF0010508D838B94FF0FF3021460022EC
:10080000002500F035F87460284670BD82B041F2D2
:100810001800C4F202000168022241F001010160E7
:10082000016801F0010101910199416841F0805195
:100830004160406800F08050009000980420C4F2AD
:100840000100016862F31A61016002B070470000A4
:10085000002848BF704700F01F01012202FA01F191
:100860004EF200124009CEF2000242F8201070470A
:1008700010B54EF60C5CCEF2000CDCF80030C3F381
:10088000022E8EF00704042C28BF0424BEF10303BB
:100890004FF0FF3E0EFA04F438BF0023A143994005
:1008A0000EFA03F39A43114300F00F02043A624434
:1008B00009010C3200F16043B0F1FF3FC8BF03F5FE
:1008C0006442117010BD00004EF60C51CEF20001D2
:1008D0000A684FF6FF031A4060F30A2242F0806074
:1008E00040F0FD70086070472DE9F04381B00028AA
:1008F00000F0858042F20008C4F202080446D8F8ED
:1009000000000D4600F0070088420CD2D8F8000025
:1009100020F007002843C8F80000D8F8000000F0D5
:100920000700A8426BD1206841F204098107C4F294
:10093000020917D5410705D5D9F8001041F4E06147
:10094000C9F80010010705D5D9F8001041F460512D
:10095000C9F80010D9F80010A26821F0F001114385
:10096000C9F80010C00741D1D8F8000000F0070016
:10097000A8420CD9D8F8000020F007002843C8F896
:100980000000D8F8000000F00700A84237D1206826
:10099000410707D5D9F80010E26821F4E06111435E
:1009A000C9F80010000708D5D9F80000216920F423
:1009B000605040EAC100C9F80000D9F8002002F0F8
:1009C0000C00082841F20020C0F27A0050D142F217
:1009D0002673C2F38341C0F60003595CD2033BD4B3
:1009E00040F60010C0F23D00484341E06068022834
:1009F0000AD001282AD159F8041C890308D40120FF
:100A000001B0BDE8F08300BF59F8041C8901F6D598
:100A1000D9F8001021F003010843C9F80000FFF7DE
:100A2000AFFD064641F28837D9F80000616800F052
:100A30000C00B0EB810F97D0FFF7A2FD801BB842EE
:100A4000F2D9032001B0BDE8F08300BF59F8041CBF
:100A50008907D4D5DCE700BFD9F8002042F224731F
:100A6000C2F34042C0F600039A5C4843B0FBF2F088
:100A7000D9F8001042F20C72C1F30311C0F6000263
:100A8000515C40F2080220FA01F140F20400C2F287
:100A900000000068C2F200021160FFF793FE002020
:100AA00001B0BDE8F083000040F2080041F204010B
:100AB000C2F20000C4F202010068096842F21C722E
:100AC000C1F30221C0F60002515CC840704700002B
:100AD00040F2080041F20401C2F20000C4F2020137
:100AE0000068096842F21C72C1F3C221C0F600021C
:100AF000515CC840704700002DE9F04182B00028E9
:100B000068D00446007841F20006C007C4F202062D
:100B100025D0706800F00C0004281BD0706800F02D
:100B20000C00082802D17068C00313D46068002844
:100B300000F06881B0F5A02F00F07C81B0F5803F17
:100B400000F07C81306820F480303060306820F420
:100B5000802076E13068800301D56068D0B32078CA
:100B6000800718D5706810F00C0F07D0706800F07F
:100B70000C0008286ED17068C0036BD43068800701
:100B800002D52069012825D13068616920F0F8007C
:100B900040EAC1003060207800071FD42078400769
:100BA00032D4E56995B1706800F00C00082840F077
:100BB0008F80012D0ED07068216A00F480328A4245
:100BC00008D1616A00F47010884203D1002002B09D
:100BD000BDE8F081012002B0BDE8F081A0690028E5
:100BE00062D00020C4F242200121C0F88014FFF737
:100BF000C7FC0546706A800700F18C80FFF7C0FCD7
:100C0000401B0228F6D92AE1F06910F0805808D17B
:100C1000F06940F08050F061F06900F08050009081
:100C2000009847F20007C4F200073868C00529D4CD
:100C3000386840F480703860FFF7A2FC054600BFBA
:100C40003868C0051ED4FFF79BFC401B6428F7D909
:100C500005E100BF2069002840F20000C4F24220F4
:100C600000F0828001210160FFF78AFC054600BF89
:100C7000306880073FF588AFFFF782FC401B0228F1
:100C8000F6D9ECE0E068002800F08080052800F04C
:100C90009780012800F09880306A20F001003062CF
:100CA000306A20F0040092E00020C4F242200021CB
:100CB000C0F88014FFF764FC054600BF706A800727
:100CC0007FF56CAFFFF75CFC401B0228F6D9C6E04D
:100CD0000027C4F2422700203866FFF751FC022D9E
:100CE00005460BD13068800140F1BE80FFF748FC1B
:100CF000401B02284FF00300F4D968E730688001F8
:100D00007FF564AFFFF73CFC401B02284FF0030067
:100D1000F4D95CE740F20800C2F20000006844F633
:100D2000D351C1F26201A0FB0101480A019000BF4A
:100D300000BF0198411E002801913FF42FAF00BF72
:100D40000198411E002801913FF428AF00BF01988F
:100D5000411E002801913FF421AF00BF0198411EC0
:100D600000280191E4D119E700210160FFF708FC98
:100D7000054600BF306880077FF50DAFFFF700FC28
:100D8000401B02284FF00300F4D920E7306A20F01E
:100D900001003062306A20F004003062FFF7F0FB9F
:100DA000054641F2883700BF306A800720D5FFF73B
:100DB000E7FB401BB8424FF00300F5D907E700BF3F
:100DC000306A40F004003062306A40F00100306266
:100DD000FFF7D6FB054641F2883700BF306A80072F
:100DE00006D4FFF7CDFB401BB842F7D937E000BF70
:100DF000B8F1000F7FF4D5AEF06920F08050F061BB
:100E0000CFE600BF306820F480303060306820F4D6
:100E100080203060FFF7B4FB054600BF30688003D8
:100E20007FF59DAEFFF7ACFB401B64284FF003003D
:100E3000F4D9CCE6306840F480203060306840F46B
:100E400080303060FFF79CFB054600BF30688003B0
:100E50003FF585AEFFF794FB401B6428F6D90320CD
:100E600002B0BDE8F08100BF206AB0F5803F05D137
:100E70007168A26821F40031114371607168626A7F
:100E800021F4741110430843706001203866FFF7A5
:100E900077FB0446306880013FF598AEFFF770FBA2
:100EA000001B02284FF00300F4D990E6411E0020F9
:100EB000B0EB116F1CBF012070474EF21002CEF252
:100EC000000251604EF62351CEF20001F0230B7068
:100ED0000721906011607047B0B590F83C20012A5E
:100EE00004BF0220B0BD01F108053CCDD1E900CE20
:100EF00023F47C5322F470521A432EF4F0431A4325
:100F00002CF4E0431A4324F4C0431A432A43C9692A
:100F100022F48042036811435964002180F83C1098
:100F20000846B0BD10B590F83C20012A4FF00202EF
:100F300033D080F83D200268D2F804E0D2F808C02F
:100F40000C682EF07003234340F2FF74C4F20004D7
:100F5000A24253600ADCB2F1804F13D040F200434A
:100F6000C4F200039A420DD011E000BF42F60043E4
:100F7000C4F201039A4205D040F60003C4F2000314
:100F80009A4204D149682CF08003194391600121F1
:100F9000002280F83D1080F83C20104610BD000073
:100FA000B0B586B000680021B0F1804FCDE90411E2
:100FB000039102911CD040F20041C4F2000188422A
:100FC0002CD042F60041C4F20101884253D141F2D3
:100FD0001800C4F20200016841F0040101600068D9
:100FE00000F00400019001984FF440600EE000BF53
:100FF00041F21800C4F20200016841F004010160EE
:10100000006800F00400019001980F200290022077
:10101000039040F60000C4F2010027E041F21800FE
:10102000C4F20200016840F6000441F004010160CE
:101030000168C4F2010401F0040101910199016801
:10104000022541F008010160006802A900F00800D3
:1010500001900198C0200290204603950595FFF766
:1010600079F90320CDE9020504F58060022105919C
:1010700002A9FFF76FF906B0B0BD00002DE9F043FB
:1010800090F83C30012B04BF0220BDE8F0834FEA0A
:10109000B202032A3CD8DFE802F003437FB900BF65
:1010A000036842F600461D6A1A6AC4F2010622F07D
:1010B00001021A621A465C6852F818CFB3428E6871
:1010C000D1F800E025F0020545EA06050CD1CE680E
:1010D000D1E9057824F4407425F00C0526F00406C7
:1010E0003C43354344EA08042CF0730747EA0E07F3
:1010F0005C609F614F6809695F631D629F6947F08B
:1011000008079F619F6927F004079F61AEE000BF59
:101110000121002280F83C200846BDE8F08300BF92
:10112000036842F600461D6A1A6AC4F2010622F0FC
:1011300010021A621A46D3F804C052F8184FB3428C
:101140008E68D1F800E025F0200545EA06150FD19C
:10115000CE68D1E905986FF0400707EA06162CF42F
:10116000406725F0C00547EA8907354347EA880C00
:1011700024F4E64444EA0E27C3F804C09F614F6894
:1011800009699F631D629F6947F400679F619F69BA
:1011900027F480679F6168E0036842F600461D6A95
:1011A0001A6AC4F2010622F480721A621A46D3F84F
:1011B00004C052F81CEFB3428E680C6825F4007529
:1011C00045EA06250FD1CE68D1E90598360240F2EE
:1011D000FF47BE432CF4405725F4406547EA091702
:1011E000354347EA081C2EF073072743C3F804C0B1
:1011F000DF614F680969DF631D62DF6947F0080737
:10120000DF61DF6927F00407DF612FE0036842F642
:101210000047D3F820C01A6AC4F2010722F48052B2
:101220001A621A465C6852F81C5FD1F800E08E68BA
:10123000BB4204D14F6924F4804444EA87142CF45F
:10124000005747EA063725F4E64646EA0E265C6074
:10125000DE614E6809691E641F62DF6947F400673A
:10126000DF61DF6927F48067DF61090213681943D2
:1012700011600021002280F83C200846BDE8F08380
:10128000002804BF0120704710B5044690F83D00C7
:1012900028B9002084F83C00204600F06FF80220B6
:1012A00084F83D00206840F2FF730268C4F2000336
:1012B00042F6004C9842C4F2010C15DCB0F1804FAC
:1012C0001AD040F20041C4F20001884214D0984282
:1012D00018DCB0F1804F1DD040F20041C4F2000193
:1012E000884217D01AE000BF604505D040F60001E3
:1012F000C4F200018842EAD1A16822F070020A43D8
:101300009842E6DD604505D040F60001C4F20001D8
:10131000884203D1216922F440720A43A36922F072
:101320008001D4F804E0E268194360450160C262BC
:10133000C0F828E002D16169CCF830100121416188
:101340000269D20703D0026922F001020261002083
:1013500084F8461084F83E1084F83F1084F840105A
:1013600084F8411084F8421084F8431084F8441043
:1013700084F8451084F83D1010BD000083B000686B
:10138000B0F1804F1ED040F20041C4F2000188420B
:1013900028D042F60041C4F2010188422FD141F227
:1013A0001C00C4F2020050F8041C41F4006140F833
:1013B000041C50F8040C00F400600290029803B082
:1013C000704700BF41F21C00C4F20200016841F006
:1013D00001010160006800F001000190019803B074
:1013E000704700BF41F21C00C4F20200016841F0E6
:1013F00002010160006800F002000090009803B054
:101400007047000041B1082910D0042914BF00F131
:10141000410200F13F020BE090F83E20012A1CBF80
:1014200001207047022280F83E2013E000F14002C4
:101430001278012A1CBF012070470222082907D018
:10144000042914BF80F8412080F83F2002E000BF4B
:1014500080F84020006801F01F010122036A8A40E1
:1014600023EA02010162036A42F64441C4F2010127
:101470001A43A1F14403984202620FD040F2FF7177
:10148000C4F20001884213DCB0F1804F1CD040F25E
:101490000041C4F20001884216D01CE00A6842F400
:1014A00000420A6040F2FF71C4F200018842EBDDA5
:1014B00042F60041C4F20101884205D040F6000125
:1014C000C4F20001884206D1816801F007010629B3
:1014D00004BF00207047016841F001010160002055
:1014E000704700007047000070470000B0B582B040
:1014F000044600680168C368426901F02F05202D89
:1015000003F0200506D12DB1204602B0BDE8B04061
:1015100000F010BF5FEA017C1EBF02F0010E03F471
:10152000907212EB0E0255D1226B012A05D111F0F7
:10153000100218BF13F0100236D10A0622D513F09C
:1015400080021FD094F84110212941D1A168B1F542
:10155000805F03D12169002900F07282216A4A1C50
:10156000226209784160E18C01390A04E1842FD1BB
:10157000C16821F08001C160C16841F04001C160D3
:1015800002B0B0BD490623D513F0400120D0C16898
:1015900021F04001C1602021204684F8411002B0B2
:1015A000BDE8B04000F0C6BC002101910168019186
:1015B0004168019101994169490600F18F80A18D2F
:1015C000E28DE38D002B1CBF891A5FEA01420CD12A
:1015D00002B0B0BDCA0718BF13F4807240F0388162
:1015E0004A0700F13B8140E1206850E8030F226880
:1015F00020F4907042E80303DBB1206850E8030F49
:10160000226820F4907042E8030393B1206850E808
:10161000030F226820F4907042E803034BB1206866
:1016200050E8030F226820F4907042E80303002B77
:10163000DAD1206850E8050F226820F0010042E866
:101640000503DBB1206850E8050F226820F0010097
:1016500042E8050393B1206850E8050F226820F0A6
:10166000010042E805034BB1206850E8050F2268ED
:1016700020F0010042E80503002BDAD1202084F895
:10168000420000202063206850E8030F226820F009
:10169000100042E80303DBB1206850E8030F226822
:1016A00020F0100042E8030393B1206850E8030FD4
:1016B000226820F0100042E803034BB1206850E894
:1016C000030F226820F0100042E80303002BDAD158
:1016D000022289B220466263B4E000BFE16B0A686F
:1016E000526893B2002B3FF473AFA58DAB42BFF4A9
:1016F0006FAFE2858969202900F09D8050E8030FD3
:10170000216820F4807041E80302EAB1206850E8C3
:10171000030F216820F4807041E80302A2B1206821
:1017200050E8030F216820F4807041E803025AB1A9
:10173000206850E8030F216820F4807041E803021C
:1017400012B12068DAE700BF206850E8050F216871
:1017500020F0010041E80502DAB1206850E8050FE9
:10176000216820F0010041E8050292B1206850E8AC
:10177000050F216820F0010041E805024AB1206808
:1017800050E8050F216820F0010041E80502002A19
:10179000DAD1206850E8050F216820F0400041E8C8
:1017A0000502DAB1206850E8050F216820F04000FA
:1017B00041E8050292B1206850E8050F216820F049
:1017C000400041E805024AB1206850E8050F216851
:1017D00020F0400041E80502002ADAD1202084F8F8
:1017E000420000202063206850E8030F216820F0A9
:1017F000100041E80302DAB1206850E8030F2168C5
:1018000020F0100041E8030292B1206850E8030F75
:10181000216820F0100041E803024AB1206850E836
:10182000030F216820F0100041E80302002ADAD1FA
:10183000E06BFEF711FD02206063A08DE18D401A80
:1018400081B2204602B0BDE8B040FFF74BBE00BFFA
:10185000626C42F0010262644A0706D5BEF1000FD5
:1018600003D0626C42F0020262648A0706D5BEF1C0
:10187000000F03D0626C42F004026264BCF1000FFE
:1018800006D555EA0E0203D0626C42F0080262648B
:10189000626C002A3FF49CAE11F0200118BF002DAD
:1018A00003D0204600F046FD20684169626C01F0DB
:1018B000400102F00802891800F0A28050E8030FEE
:1018C000216820F4907041E80302C2B3206850E818
:1018D000030F216820F4907041E803027AB3206876
:1018E00050E8030F216820F4907041E8030232B3FE
:1018F000206850E8030F216820F4907041E803024B
:10190000EAB12068DAE700BF206850E8050F2168D7
:1019100020F0010041E80502DAB1206850E8050F27
:10192000216820F0010041E8050292B1206850E8EA
:10193000050F216820F0010041E805024AB1206846
:1019400050E8050F216820F0010041E80502002A57
:10195000DAD1206B012824D1206850E8030F2168D8
:1019600020F0100041E80302DAB1206850E8030FCC
:10197000216820F0100041E8030292B1206850E88D
:10198000030F216820F0100041E803024AB12068EB
:1019900050E8030F216820F0100041E80302002AFC
:1019A000DAD1202084F842000020206320684169B9
:1019B00049063FD550E8050F216820F0400041E876
:1019C00005022AB3206850E8050F216820F0400086
:1019D00041E80502E2B1206850E8050F216820F0D7
:1019E000400041E805029AB1206850E8050F2168DF
:1019F00020F0400041E8050252B12068DAE700BF5C
:101A00002046FFF771FD0020606402B0B0BD00BF4A
:101A1000E06B78B142F22931C0F600014163FEF774
:101A20003FFC00283FF4D4ADE06B416B02B0BDE851
:101A3000B0400847204602B0BDE8B040FFF754BDB3
:101A4000216A31F8022B6FF35F22426021628AE53E
:101A5000002804BF0120704710B5044690F84100EB
:101A600028B9002084F84000204600F061F82420C6
:101A700084F841002068D4E90212C36823F40053BB
:101A8000C360036923F440531A430261D4E9042379
:101A90001143C268194341F20C639A431143C16078
:101AA0004169A26921F44071114343F60002C4F276
:101AB00001029042416103D0FEF7F6FF02E000BF51
:101AC000FFF706F86268192148439100B0FBF1F076
:101AD00048F21F51C5F2EB11A0FB01235A096FF028
:101AE000630302FB0300322303EB0010A0FB0101A0
:101AF000F02303EA5113206803EB0212C1F34311F0
:101B000011448160016921F490410161416921F032
:101B10002A014161C16841F40051C16000202021C7
:101B2000606484F8411084F84210606310BD0000C6
:101B300070B586B0006844F60001C4F200010026CA
:101B400088420596CDE90366029647D043F6000128
:101B5000C4F20101884270D141F21800C4F20200BF
:101B6000016840F6004441F4804101600168C4F21C
:101B7000010401F4804101910199016802AD41F035
:101B8000080101600068294600F0080001900198F2
:101B90004020029002200390032005902046FEF78B
:101BA000D9FB802002900020CDE903002046294681
:101BB000FEF7D0FB0420C4F201000168002241F0CE
:101BC000E06141F00401016025200021FEF750FE94
:101BD0002520FEF73DFE06B070BD00BF41F21800A3
:101BE000C4F20200416840F6004441F480214160A3
:101BF0004168C4F2010401F4802101910199016856
:101C000002AD41F0080101600068294600F00800BB
:101C1000019001984FF4806002900220039003200D
:101C200005902046FEF796FB4FF40060CDE90206D2
:101C3000204629460496FEF78DFB06B070BD0000D5
:101C400090F84230202B1CBF0220704700294FF033
:101C5000010318BF002A01D118467047002303630F
:101C6000816222218285C285436480F84210016925
:101C7000006819B1C16841F48071C16041690023F5
:101C800041F001014161C16841F02001C160184685
:101C90007047000010B5006843F60001C4F201016E
:101CA000884218BF10BD40F27004C2F20004A06860
:101CB000012807D070B920785A2879D15A2020738A
:101CC000012074E02078A52870D1A520607302203F
:101CD0006DE000BF217822181173411CA07B0529FB
:101CE000A16008BF01282DD0082908BF02285FD1B4
:101CF000207B617B94F80FC094F810E00844627C6C
:101D00006044A37C7044104418440230E17CC0B2AB
:101D100081424BD14CEA0E2040EA0240002140EAC9
:101D20000360C4F2C62100F025FC00F007FC40F27D
:101D3000DC01C2F200010968632828BF6320C86380
:101D400034E000BF217B627BE07B11440144237CB3
:101D50000131C9B28B4229D102280BD0012817D0FA
:101D600020BB40F2DC00C2F2000001680020C86322
:101D70001DE000BF40F2DC00C2F200000068C16B51
:101D80000A04002A61800BD10AD0A1880DE000BFAF
:101D900040F2DC00C2F200000068642105E000BFF0
:101DA0000021002A08BF6321A180C1630020A06038
:101DB00040F2B41040F27001C2F20000C2F2000121
:101DC0000122BDE81040FFF73BBF00002DE9F041C4
:101DD000044690F8410020281CBF0220BDE8F08195
:101DE0000F4600294FF0010000F082801646002ABD
:101DF00008BFBDE8F0814FF0000821201D46C4F85F
:101E0000448084F84100FEF7BBFBA684E684A16809
:101E10000646B1F5805F05D12069002814BF384619
:101E2000B8460746E08CC8B1681C19D0002D61D1B6
:101E3000216807E017F8010B4860E08C0138E08466
:101E4000E08C68B3086800064CD5002FF2D138F852
:101E5000020B00276FF35F20EEE700BF21681FE051
:101E6000216802E00868000609D40868000606D464
:101E7000086800065CBF08685FEA0060F2D51FB121
:101E800017F8010B05E000BF38F8020B00276FF3CD
:101E90005F204860E08C0138E084E08C0028E4D1C9
:101EA000086840061CD4EDB1681C0FD108684006D4
:101EB00016D40868400613D40868400610D4086891
:101EC00040064FF00000F1D50FE000BFFEF758FBD1
:101ED000801BA84208D82068C16800684006F5D574
:101EE000002002E0FEF74CFB0320202184F8411083
:101EF000BDE8F081216800BF0868000608D4FEF73D
:101F00003FFB801BA842EFD82168C868F4E700BFF8
:101F100017B117F8010B04E038F8020B00276FF334
:101F20005F204860E08C0138E084E08C0028E3D139
:101F3000B6E7000070470000FEE70000F0B585B08E
:101F400041F21800C4F20200016840F6004441F07A
:101F5000200101600168C4F2010401F02001019137
:101F600001990168012241F00401016001684FF408
:101F7000E04501F00401019101990168012641F059
:101F80000801016000684FF4E04100F00800019092
:101F900001982046FEF7EEFACDE9015601AD002684
:101FA00002272046294603960497FEF7D3F94FF4FB
:101FB000004001A9C1C120462946FEF7CBF905B072
:101FC000F0BD000080B540F2880045F20041C2F249
:101FD0000000C4F2000141F6802200234FF4804C3F
:101FE000C0F2060280E80E00C0E9033CC0E90533F8
:101FF000C0E90733FEF7CAFA002808BF80BDBDE874
:102000008040FEF723B9000080B592B040F2DC00BA
:1020100042F600420021C2F20000C4F2010240F286
:10202000CF234FF0630C4FF0800E1191CDE90F11CB
:10203000CDE90D11CDE90B11CDE90911CDE907115C
:10204000CDE90511CDE90311CDE90111C0E9002366
:10205000C0E9021CC0E90411C0F818E0FFF710F94C
:10206000002818BFFEF7F2F840F2DC00C2F20000D0
:1020700010A9FEF757FF002818BFFEF7E7F8602009
:10208000099032200A900020CDE90B00CDE90D0027
:102090000F9040F2DC00C2F2000009A90822FEF70E
:1020A000EDFF002818BFFEF7D1F840F2DC00C2F2C5
:1020B000000009A90C22FEF7E1FF002818BFFEF777
:1020C000C5F800200590CDE90300CDE901004FF4EB
:1020D0000051089040F2DC000691C2F2000001A914
:1020E000FEF7FAFE002818BFFEF7B0F840F2DC0059
:1020F000C2F20000FEF754FF12B080BD80B58AB076
:1021000040F224100021C2F200004FF080424FF64E
:10211000FF73CDE90811CDE90611CDE90411C0E93D
:102120000021C0E9021301618161FFF7A9F80028CD
:1021300018BFFEF78BF840F22410C2F2000008A985
:10214000FEF7F0FE002818BFFEF780F8602001902F
:102150000020CDE90200059040F22410C2F20000F8
:1021600001A90022FEF78AFF002818BFFEF76EF8CB
:1021700040F22410C2F2000001A90422FEF77EFF03
:10218000002818BFFEF762F840F22410C2F20000E7
:1021900001A90822FEF772FF002818BFFEF756F8C3
:1021A00040F22410C2F2000001A90C22FEF766FFE3
:1021B000002818BFFEF74AF840F22410C2F20000CF
:1021C000FEF7EEFE0AB080BD80B58AB040F26C101A
:1021D00040F200420021C2F20000C4F200024FF6B9
:1021E000FF73CDE90811CDE90611CDE90411C0E96D
:1021F0000021C0E9021301618161FFF741F8002865
:1022000018BFFEF723F840F26C10C2F2000008A9D4
:10221000FEF788FE002818BFFEF718F8602001902E
:102220000020CDE90200059040F26C10C2F20000DF
:1022300001A90022FEF722FF002818BFFEF706F8CA
:1022400040F26C10C2F2000001A90422FEF716FF52
:10225000002818BFFDF7FAFF40F26C10C2F2000030
:1022600001A90822FEF70AFF002818BFFDF7EEFFBC
:1022700040F26C10C2F2000001A90C22FEF7FEFE33
:10228000002818BFFDF7E2FF40F26C10C2F2000018
:10229000FEF786FE0AB080BD80B540F2B41043F66A
:1022A0000001C2F20000C4F2010100234FF00C0C47
:1022B0004FF4E13280E80E00C0E90333C0E905C302
:1022C000C361FFF7C5FB002808BF80BDBDE88040A3
:1022D000FDF7BCBF80B540F2FC1044F60001C2F22D
:1022E0000000C4F2000100234FF00C0C4FF4E13267
:1022F00080E80E00C0E90333C0E905C3C361FFF7FE
:10230000A7FB002808BF80BDBDE88040FDF79EBF49
:10231000FEE70000FEE70000704700007047000085
:10232000FEF72EBA70470000406A0021C185C184C3
:10233000FFF7DAB881B090F84210222920D18368E3
:10234000B3F5805F08D10169002965D000F128014B
:102350000A6803685B680AE0014651F8282F13B940
:102360000369002BF5D003685B6803F07F031370EB
:102370000A6801320A60C18D01390A04C18501D0A1
:1023800001B070470168CA6822F02002CA60CA68BA
:1023900022F48072CA604A6922F001024A61202256
:1023A00080F8422000224263036B012B3ED102637E
:1023B00051E8031F026821F0100142E8031301688D
:1023C000DBB151E8031F026821F0100142E803135A
:1023D000016893B151E8031F026821F0100142E83F
:1023E000031301684BB151E8031F026821F010018B
:1023F00042E803130168002BDAD10A68D20606D539
:10240000002200920A680092496800910099818D2B
:1024100001B0FFF767B800BF0168826A49686FF3CF
:102420005F2122F8021B8262A5E700BF01B0FFF71F
:1024300031BC000040F2B410C2F20000FFF756B801
:10244000FEE7000090B0FEF7A9F900240120CDE9D5
:102450000B44CDE9094406900A904FF4E0104FF484
:10246000803102250F9006A8CDE90714CDE90D5162
:10247000FEF742FB20B1EFF3108072B6FEE700BF1B
:102480000F20CDE901054FF48060CDE9040401A8D7
:1024900002210394FEF728FA20B1EFF3108072B600
:1024A000FEE700BFFFF74AFDFFF78CFDFFF7ACFD2D
:1024B000FFF724FEFFF788FEFFF7EEFEFFF70AFFA7
:1024C00040F2B418C2F2000840F27001C2F20001FA
:1024D00040460122FFF7B4FB40F2DC00C2F20000EC
:1024E0000821FEF78FFF40F600450026C4F20105E3
:1024F0004AF25A5406AF00BFFEF742F8801BC828C4
:10250000FAD3FEF73DF8064628464FF40041FEF7A1
:102510002BF8ADF81840002818BF01208DF81A00DC
:102520004FF0000008BF4FF0FF308DF81B00404611
:10253000394604226423FFF749FCDDE741000B0E16
:10254000D3F19E0208D950F400034FEA032323FA83
:1025500002F048BF4042704710B500F08CF800BF51
:1025600049922480002070476FF0004282EA2000E8
:10257000704700004FF47F0C1CEAD0121EBF1CEA0B
:10258000D11392EA0C0F93EA0C0F00F0478090EA07
:10259000010F48BF42F480724FF0004C4CEA00201B
:1025A0004CEA012102EB0302A0FB0113A2F5000299
:1025B000002918BF43F001035B0028BF4FEA330333
:1025C00042EB22425FEA132C4CEBC2502EBFBCEB15
:1025D000436FB2F57C0F70474FEA036CBCF1004FBC
:1025E00008BF20F00100B2F57C0F38BF70470BD553
:1025F00082F0FF0212F5803FC8BF704700F1C04073
:10260000D8BF00F00040704700F5000C5FEA4C0CAA
:1026100048BF7047B0F1C04000F073B80CEAD11366
:1026200090EA010F48BF42F48072624538BF6345AB
:1026300004D280EA010000F00040704710B500F0BD
:102640001AF800BF8900013E00F007B800F009B891
:102650005FEA410C5FEA1C6C08D080EA010000F0E0
:1026600050B85FEA400C5FEA1C6CF6D14FF00040B6
:10267000A0F5800070470EF1020E2EF0030E5EF8FA
:10268000044B244204D44FEA4102B2F17F4F11D8E7
:102690004FEA4003B3F17F4F0CD80ED14FEAD07C04
:1026A0000CEB4C0C0CF1020CB2F17F4F08BF4CEB61
:1026B000D17C04E04FF0080C01E04FEAD17C0CEB38
:1026C0004C0324FA03F404F00704B4F1040C06D21A
:1026D0000EEB840CBDE810404CF0010C6047DFE8C5
:1026E0000CF0070802024FF00040A0F5800010BD7A
:1026F0000846420018BFD2F1807288BF00F0004047
:1027000010BDFF2141EAD050C00570470000000015
:102710000000000001020304060708090000000091
:1027200001020304010202030405060708090A0B5B
:102730000C0D0E0F1010000058270008000000209C
:102740001000000028010008682700081000002081
:1027500038080000440100080100000010000000DB
:0827600000127A0000000000E5
:04000005080000ED02
:00000001FF
